{
  "contractName": "NFTArt",
  "abi": [
    {
      "inputs": [],
      "stateMutability": "nonpayable",
      "type": "constructor"
    },
    {
      "anonymous": false,
      "inputs": [
        {
          "indexed": true,
          "internalType": "address",
          "name": "owner",
          "type": "address"
        },
        {
          "indexed": true,
          "internalType": "address",
          "name": "approved",
          "type": "address"
        },
        {
          "indexed": true,
          "internalType": "uint256",
          "name": "tokenId",
          "type": "uint256"
        }
      ],
      "name": "Approval",
      "type": "event"
    },
    {
      "anonymous": false,
      "inputs": [
        {
          "indexed": true,
          "internalType": "address",
          "name": "owner",
          "type": "address"
        },
        {
          "indexed": true,
          "internalType": "address",
          "name": "operator",
          "type": "address"
        },
        {
          "indexed": false,
          "internalType": "bool",
          "name": "approved",
          "type": "bool"
        }
      ],
      "name": "ApprovalForAll",
      "type": "event"
    },
    {
      "anonymous": false,
      "inputs": [
        {
          "indexed": false,
          "internalType": "uint256",
          "name": "_tokenId",
          "type": "uint256"
        }
      ],
      "name": "Mint_TokenID",
      "type": "event"
    },
    {
      "anonymous": false,
      "inputs": [
        {
          "indexed": true,
          "internalType": "address",
          "name": "previousOwner",
          "type": "address"
        },
        {
          "indexed": true,
          "internalType": "address",
          "name": "newOwner",
          "type": "address"
        }
      ],
      "name": "OwnershipTransferred",
      "type": "event"
    },
    {
      "anonymous": false,
      "inputs": [
        {
          "indexed": true,
          "internalType": "address",
          "name": "from",
          "type": "address"
        },
        {
          "indexed": true,
          "internalType": "address",
          "name": "to",
          "type": "address"
        },
        {
          "indexed": true,
          "internalType": "uint256",
          "name": "tokenId",
          "type": "uint256"
        }
      ],
      "name": "Transfer",
      "type": "event"
    },
    {
      "inputs": [
        {
          "internalType": "address",
          "name": "to",
          "type": "address"
        },
        {
          "internalType": "uint256",
          "name": "tokenId",
          "type": "uint256"
        }
      ],
      "name": "approve",
      "outputs": [],
      "stateMutability": "nonpayable",
      "type": "function"
    },
    {
      "inputs": [
        {
          "internalType": "address",
          "name": "owner",
          "type": "address"
        }
      ],
      "name": "balanceOf",
      "outputs": [
        {
          "internalType": "uint256",
          "name": "",
          "type": "uint256"
        }
      ],
      "stateMutability": "view",
      "type": "function",
      "constant": true
    },
    {
      "inputs": [
        {
          "internalType": "uint256",
          "name": "tokenId",
          "type": "uint256"
        }
      ],
      "name": "getApproved",
      "outputs": [
        {
          "internalType": "address",
          "name": "",
          "type": "address"
        }
      ],
      "stateMutability": "view",
      "type": "function",
      "constant": true
    },
    {
      "inputs": [
        {
          "internalType": "address",
          "name": "owner",
          "type": "address"
        },
        {
          "internalType": "address",
          "name": "operator",
          "type": "address"
        }
      ],
      "name": "isApprovedForAll",
      "outputs": [
        {
          "internalType": "bool",
          "name": "",
          "type": "bool"
        }
      ],
      "stateMutability": "view",
      "type": "function",
      "constant": true
    },
    {
      "inputs": [],
      "name": "name",
      "outputs": [
        {
          "internalType": "string",
          "name": "",
          "type": "string"
        }
      ],
      "stateMutability": "view",
      "type": "function",
      "constant": true
    },
    {
      "inputs": [],
      "name": "owner",
      "outputs": [
        {
          "internalType": "address",
          "name": "",
          "type": "address"
        }
      ],
      "stateMutability": "view",
      "type": "function",
      "constant": true
    },
    {
      "inputs": [
        {
          "internalType": "uint256",
          "name": "tokenId",
          "type": "uint256"
        }
      ],
      "name": "ownerOf",
      "outputs": [
        {
          "internalType": "address",
          "name": "",
          "type": "address"
        }
      ],
      "stateMutability": "view",
      "type": "function",
      "constant": true
    },
    {
      "inputs": [],
      "name": "renounceOwnership",
      "outputs": [],
      "stateMutability": "nonpayable",
      "type": "function"
    },
    {
      "inputs": [
        {
          "internalType": "address",
          "name": "from",
          "type": "address"
        },
        {
          "internalType": "address",
          "name": "to",
          "type": "address"
        },
        {
          "internalType": "uint256",
          "name": "tokenId",
          "type": "uint256"
        }
      ],
      "name": "safeTransferFrom",
      "outputs": [],
      "stateMutability": "nonpayable",
      "type": "function"
    },
    {
      "inputs": [
        {
          "internalType": "address",
          "name": "from",
          "type": "address"
        },
        {
          "internalType": "address",
          "name": "to",
          "type": "address"
        },
        {
          "internalType": "uint256",
          "name": "tokenId",
          "type": "uint256"
        },
        {
          "internalType": "bytes",
          "name": "_data",
          "type": "bytes"
        }
      ],
      "name": "safeTransferFrom",
      "outputs": [],
      "stateMutability": "nonpayable",
      "type": "function"
    },
    {
      "inputs": [
        {
          "internalType": "address",
          "name": "operator",
          "type": "address"
        },
        {
          "internalType": "bool",
          "name": "approved",
          "type": "bool"
        }
      ],
      "name": "setApprovalForAll",
      "outputs": [],
      "stateMutability": "nonpayable",
      "type": "function"
    },
    {
      "inputs": [
        {
          "internalType": "bytes4",
          "name": "interfaceId",
          "type": "bytes4"
        }
      ],
      "name": "supportsInterface",
      "outputs": [
        {
          "internalType": "bool",
          "name": "",
          "type": "bool"
        }
      ],
      "stateMutability": "view",
      "type": "function",
      "constant": true
    },
    {
      "inputs": [],
      "name": "symbol",
      "outputs": [
        {
          "internalType": "string",
          "name": "",
          "type": "string"
        }
      ],
      "stateMutability": "view",
      "type": "function",
      "constant": true
    },
    {
      "inputs": [
        {
          "internalType": "uint256",
          "name": "tokenId",
          "type": "uint256"
        }
      ],
      "name": "tokenURI",
      "outputs": [
        {
          "internalType": "string",
          "name": "",
          "type": "string"
        }
      ],
      "stateMutability": "view",
      "type": "function",
      "constant": true
    },
    {
      "inputs": [
        {
          "internalType": "address",
          "name": "from",
          "type": "address"
        },
        {
          "internalType": "address",
          "name": "to",
          "type": "address"
        },
        {
          "internalType": "uint256",
          "name": "tokenId",
          "type": "uint256"
        }
      ],
      "name": "transferFrom",
      "outputs": [],
      "stateMutability": "nonpayable",
      "type": "function"
    },
    {
      "inputs": [
        {
          "internalType": "address",
          "name": "newOwner",
          "type": "address"
        }
      ],
      "name": "transferOwnership",
      "outputs": [],
      "stateMutability": "nonpayable",
      "type": "function"
    },
    {
      "inputs": [
        {
          "internalType": "address",
          "name": "to",
          "type": "address"
        },
        {
          "internalType": "string",
          "name": "tokenURI",
          "type": "string"
        }
      ],
      "name": "mint",
      "outputs": [
        {
          "internalType": "uint256",
          "name": "",
          "type": "uint256"
        }
      ],
      "stateMutability": "nonpayable",
      "type": "function"
    },
    {
      "inputs": [
        {
          "internalType": "uint256",
          "name": "tokId",
          "type": "uint256"
        }
      ],
      "name": "existsTID",
      "outputs": [
        {
          "internalType": "bool",
          "name": "",
          "type": "bool"
        }
      ],
      "stateMutability": "view",
      "type": "function",
      "constant": true
    }
  ],
  "bytecode": "0x60806040523480156200001157600080fd5b506040518060400160405280600581526020017f5061696e740000000000000000000000000000000000000000000000000000008152506040518060400160405280600381526020017f504e540000000000000000000000000000000000000000000000000000000000815250816000908051906020019062000096929190620001a6565b508060019080519060200190620000af929190620001a6565b505050620000d2620000c6620000d860201b60201c565b620000e060201b60201c565b620002bb565b600033905090565b6000600760009054906101000a900473ffffffffffffffffffffffffffffffffffffffff16905081600760006101000a81548173ffffffffffffffffffffffffffffffffffffffff021916908373ffffffffffffffffffffffffffffffffffffffff1602179055508173ffffffffffffffffffffffffffffffffffffffff168173ffffffffffffffffffffffffffffffffffffffff167f8be0079c531659141344cd1fd0a4f28419497f9722a3daafe3b4186f6b6457e060405160405180910390a35050565b828054620001b49062000285565b90600052602060002090601f016020900481019282620001d8576000855562000224565b82601f10620001f357805160ff191683800117855562000224565b8280016001018555821562000224579182015b828111156200022357825182559160200191906001019062000206565b5b50905062000233919062000237565b5090565b5b808211156200025257600081600090555060010162000238565b5090565b7f4e487b7100000000000000000000000000000000000000000000000000000000600052602260045260246000fd5b600060028204905060018216806200029e57607f821691505b60208210811415620002b557620002b462000256565b5b50919050565b61305b80620002cb6000396000f3fe608060405234801561001057600080fd5b50600436106101165760003560e01c8063715018a6116100a2578063b88d4fde11610071578063b88d4fde146102df578063c87b56dd146102fb578063d0def5211461032b578063e985e9c51461035b578063f2fde38b1461038b57610116565b8063715018a61461027d5780638da5cb5b1461028757806395d89b41146102a5578063a22cb465146102c357610116565b806323b872dd116100e957806323b872dd146101b557806342842e0e146101d157806348c13bfc146101ed5780636352211e1461021d57806370a082311461024d57610116565b806301ffc9a71461011b57806306fdde031461014b578063081812fc14610169578063095ea7b314610199575b600080fd5b61013560048036038101906101309190611cbf565b6103a7565b6040516101429190611d07565b60405180910390f35b610153610489565b6040516101609190611dbb565b60405180910390f35b610183600480360381019061017e9190611e13565b61051b565b6040516101909190611e81565b60405180910390f35b6101b360048036038101906101ae9190611ec8565b6105a0565b005b6101cf60048036038101906101ca9190611f08565b6106b8565b005b6101eb60048036038101906101e69190611f08565b610718565b005b61020760048036038101906102029190611e13565b610738565b6040516102149190611d07565b60405180910390f35b61023760048036038101906102329190611e13565b61074a565b6040516102449190611e81565b60405180910390f35b61026760048036038101906102629190611f5b565b6107fc565b6040516102749190611f97565b60405180910390f35b6102856108b4565b005b61028f61093c565b60405161029c9190611e81565b60405180910390f35b6102ad610966565b6040516102ba9190611dbb565b60405180910390f35b6102dd60048036038101906102d89190611fde565b6109f8565b005b6102f960048036038101906102f49190612153565b610a0e565b005b61031560048036038101906103109190611e13565b610a70565b6040516103229190611dbb565b60405180910390f35b61034560048036038101906103409190612277565b610bc2565b6040516103529190611f97565b60405180910390f35b610375600480360381019061037091906122d3565b610cb4565b6040516103829190611d07565b60405180910390f35b6103a560048036038101906103a09190611f5b565b610d48565b005b60007f80ac58cd000000000000000000000000000000000000000000000000000000007bffffffffffffffffffffffffffffffffffffffffffffffffffffffff1916827bffffffffffffffffffffffffffffffffffffffffffffffffffffffff1916148061047257507f5b5e139f000000000000000000000000000000000000000000000000000000007bffffffffffffffffffffffffffffffffffffffffffffffffffffffff1916827bffffffffffffffffffffffffffffffffffffffffffffffffffffffff1916145b80610482575061048182610e40565b5b9050919050565b60606000805461049890612342565b80601f01602080910402602001604051908101604052809291908181526020018280546104c490612342565b80156105115780601f106104e657610100808354040283529160200191610511565b820191906000526020600020905b8154815290600101906020018083116104f457829003601f168201915b5050505050905090565b600061052682610eaa565b610565576040517f08c379a000000000000000000000000000000000000000000000000000000000815260040161055c906123e6565b60405180910390fd5b6004600083815260200190815260200160002060009054906101000a900473ffffffffffffffffffffffffffffffffffffffff169050919050565b60006105ab8261074a565b90508073ffffffffffffffffffffffffffffffffffffffff168373ffffffffffffffffffffffffffffffffffffffff16141561061c576040517f08c379a000000000000000000000000000000000000000000000000000000000815260040161061390612478565b60405180910390fd5b8073ffffffffffffffffffffffffffffffffffffffff1661063b610f16565b73ffffffffffffffffffffffffffffffffffffffff16148061066a575061066981610664610f16565b610cb4565b5b6106a9576040517f08c379a00000000000000000000000000000000000000000000000000000000081526004016106a09061250a565b60405180910390fd5b6106b38383610f1e565b505050565b6106c96106c3610f16565b82610fd7565b610708576040517f08c379a00000000000000000000000000000000000000000000000000000000081526004016106ff9061259c565b60405180910390fd5b6107138383836110b5565b505050565b61073383838360405180602001604052806000815250610a0e565b505050565b600061074382610eaa565b9050919050565b6000806002600084815260200190815260200160002060009054906101000a900473ffffffffffffffffffffffffffffffffffffffff169050600073ffffffffffffffffffffffffffffffffffffffff168173ffffffffffffffffffffffffffffffffffffffff1614156107f3576040517f08c379a00000000000000000000000000000000000000000000000000000000081526004016107ea9061262e565b60405180910390fd5b80915050919050565b60008073ffffffffffffffffffffffffffffffffffffffff168273ffffffffffffffffffffffffffffffffffffffff16141561086d576040517f08c379a0000000000000000000000000000000000000000000000000000000008152600401610864906126c0565b60405180910390fd5b600360008373ffffffffffffffffffffffffffffffffffffffff1673ffffffffffffffffffffffffffffffffffffffff168152602001908152602001600020549050919050565b6108bc610f16565b73ffffffffffffffffffffffffffffffffffffffff166108da61093c565b73ffffffffffffffffffffffffffffffffffffffff1614610930576040517f08c379a00000000000000000000000000000000000000000000000000000000081526004016109279061272c565b60405180910390fd5b61093a6000611311565b565b6000600760009054906101000a900473ffffffffffffffffffffffffffffffffffffffff16905090565b60606001805461097590612342565b80601f01602080910402602001604051908101604052809291908181526020018280546109a190612342565b80156109ee5780601f106109c3576101008083540402835291602001916109ee565b820191906000526020600020905b8154815290600101906020018083116109d157829003601f168201915b5050505050905090565b610a0a610a03610f16565b83836113d7565b5050565b610a1f610a19610f16565b83610fd7565b610a5e576040517f08c379a0000000000000000000000000000000000000000000000000000000008152600401610a559061259c565b60405180910390fd5b610a6a84848484611544565b50505050565b6060610a7b82610eaa565b610aba576040517f08c379a0000000000000000000000000000000000000000000000000000000008152600401610ab1906127be565b60405180910390fd5b6000600660008481526020019081526020016000208054610ada90612342565b80601f0160208091040260200160405190810160405280929190818152602001828054610b0690612342565b8015610b535780601f10610b2857610100808354040283529160200191610b53565b820191906000526020600020905b815481529060010190602001808311610b3657829003601f168201915b505050505090506000610b646115a0565b9050600081511415610b7a578192505050610bbd565b600082511115610baf578082604051602001610b9792919061281a565b60405160208183030381529060405292505050610bbd565b610bb8846115b7565b925050505b919050565b6000610bcc610f16565b73ffffffffffffffffffffffffffffffffffffffff16610bea61093c565b73ffffffffffffffffffffffffffffffffffffffff1614610c40576040517f08c379a0000000000000000000000000000000000000000000000000000000008152600401610c379061272c565b60405180910390fd5b60086000815480929190610c539061286d565b9190505550610c648360085461165e565b7f93d0b5983cde1b7b7c6e61506aa8bef9402ffef3504517fe856c32b62de8f154600854604051610c959190611f97565b60405180910390a1610ca96008548361182c565b600854905092915050565b6000600560008473ffffffffffffffffffffffffffffffffffffffff1673ffffffffffffffffffffffffffffffffffffffff16815260200190815260200160002060008373ffffffffffffffffffffffffffffffffffffffff1673ffffffffffffffffffffffffffffffffffffffff16815260200190815260200160002060009054906101000a900460ff16905092915050565b610d50610f16565b73ffffffffffffffffffffffffffffffffffffffff16610d6e61093c565b73ffffffffffffffffffffffffffffffffffffffff1614610dc4576040517f08c379a0000000000000000000000000000000000000000000000000000000008152600401610dbb9061272c565b60405180910390fd5b600073ffffffffffffffffffffffffffffffffffffffff168173ffffffffffffffffffffffffffffffffffffffff161415610e34576040517f08c379a0000000000000000000000000000000000000000000000000000000008152600401610e2b90612928565b60405180910390fd5b610e3d81611311565b50565b60007f01ffc9a7000000000000000000000000000000000000000000000000000000007bffffffffffffffffffffffffffffffffffffffffffffffffffffffff1916827bffffffffffffffffffffffffffffffffffffffffffffffffffffffff1916149050919050565b60008073ffffffffffffffffffffffffffffffffffffffff166002600084815260200190815260200160002060009054906101000a900473ffffffffffffffffffffffffffffffffffffffff1673ffffffffffffffffffffffffffffffffffffffff1614159050919050565b600033905090565b816004600083815260200190815260200160002060006101000a81548173ffffffffffffffffffffffffffffffffffffffff021916908373ffffffffffffffffffffffffffffffffffffffff160217905550808273ffffffffffffffffffffffffffffffffffffffff16610f918361074a565b73ffffffffffffffffffffffffffffffffffffffff167f8c5be1e5ebec7d5bd14f71427d1e84f3dd0314c0f7b2291e5b200ac8c7c3b92560405160405180910390a45050565b6000610fe282610eaa565b611021576040517f08c379a0000000000000000000000000000000000000000000000000000000008152600401611018906129ba565b60405180910390fd5b600061102c8361074a565b90508073ffffffffffffffffffffffffffffffffffffffff168473ffffffffffffffffffffffffffffffffffffffff16148061109b57508373ffffffffffffffffffffffffffffffffffffffff166110838461051b565b73ffffffffffffffffffffffffffffffffffffffff16145b806110ac57506110ab8185610cb4565b5b91505092915050565b8273ffffffffffffffffffffffffffffffffffffffff166110d58261074a565b73ffffffffffffffffffffffffffffffffffffffff161461112b576040517f08c379a000000000000000000000000000000000000000000000000000000000815260040161112290612a4c565b60405180910390fd5b600073ffffffffffffffffffffffffffffffffffffffff168273ffffffffffffffffffffffffffffffffffffffff16141561119b576040517f08c379a000000000000000000000000000000000000000000000000000000000815260040161119290612ade565b60405180910390fd5b6111a68383836118a0565b6111b1600082610f1e565b6001600360008573ffffffffffffffffffffffffffffffffffffffff1673ffffffffffffffffffffffffffffffffffffffff16815260200190815260200160002060008282546112019190612afe565b925050819055506001600360008473ffffffffffffffffffffffffffffffffffffffff1673ffffffffffffffffffffffffffffffffffffffff16815260200190815260200160002060008282546112589190612b32565b92505081905550816002600083815260200190815260200160002060006101000a81548173ffffffffffffffffffffffffffffffffffffffff021916908373ffffffffffffffffffffffffffffffffffffffff160217905550808273ffffffffffffffffffffffffffffffffffffffff168473ffffffffffffffffffffffffffffffffffffffff167fddf252ad1be2c89b69c2b068fc378daa952ba7f163c4a11628f55a4df523b3ef60405160405180910390a4505050565b6000600760009054906101000a900473ffffffffffffffffffffffffffffffffffffffff16905081600760006101000a81548173ffffffffffffffffffffffffffffffffffffffff021916908373ffffffffffffffffffffffffffffffffffffffff1602179055508173ffffffffffffffffffffffffffffffffffffffff168173ffffffffffffffffffffffffffffffffffffffff167f8be0079c531659141344cd1fd0a4f28419497f9722a3daafe3b4186f6b6457e060405160405180910390a35050565b8173ffffffffffffffffffffffffffffffffffffffff168373ffffffffffffffffffffffffffffffffffffffff161415611446576040517f08c379a000000000000000000000000000000000000000000000000000000000815260040161143d90612bd4565b60405180910390fd5b80600560008573ffffffffffffffffffffffffffffffffffffffff1673ffffffffffffffffffffffffffffffffffffffff16815260200190815260200160002060008473ffffffffffffffffffffffffffffffffffffffff1673ffffffffffffffffffffffffffffffffffffffff16815260200190815260200160002060006101000a81548160ff0219169083151502179055508173ffffffffffffffffffffffffffffffffffffffff168373ffffffffffffffffffffffffffffffffffffffff167f17307eab39ab6107e8899845ad3d59bd9653f200f220920489ca2b5937696c31836040516115379190611d07565b60405180910390a3505050565b61154f8484846110b5565b61155b848484846118a5565b61159a576040517f08c379a000000000000000000000000000000000000000000000000000000000815260040161159190612c66565b60405180910390fd5b50505050565b606060405180602001604052806000815250905090565b60606115c282610eaa565b611601576040517f08c379a00000000000000000000000000000000000000000000000000000000081526004016115f890612cf8565b60405180910390fd5b600061160b6115a0565b9050600081511161162b5760405180602001604052806000815250611656565b8061163584611a3c565b60405160200161164692919061281a565b6040516020818303038152906040525b915050919050565b600073ffffffffffffffffffffffffffffffffffffffff168273ffffffffffffffffffffffffffffffffffffffff1614156116ce576040517f08c379a00000000000000000000000000000000000000000000000000000000081526004016116c590612d64565b60405180910390fd5b6116d781610eaa565b15611717576040517f08c379a000000000000000000000000000000000000000000000000000000000815260040161170e90612dd0565b60405180910390fd5b611723600083836118a0565b6001600360008473ffffffffffffffffffffffffffffffffffffffff1673ffffffffffffffffffffffffffffffffffffffff16815260200190815260200160002060008282546117739190612b32565b92505081905550816002600083815260200190815260200160002060006101000a81548173ffffffffffffffffffffffffffffffffffffffff021916908373ffffffffffffffffffffffffffffffffffffffff160217905550808273ffffffffffffffffffffffffffffffffffffffff16600073ffffffffffffffffffffffffffffffffffffffff167fddf252ad1be2c89b69c2b068fc378daa952ba7f163c4a11628f55a4df523b3ef60405160405180910390a45050565b61183582610eaa565b611874576040517f08c379a000000000000000000000000000000000000000000000000000000000815260040161186b90612e62565b60405180910390fd5b8060066000848152602001908152602001600020908051906020019061189b929190611bb0565b505050565b505050565b60006118c68473ffffffffffffffffffffffffffffffffffffffff16611b9d565b15611a2f578373ffffffffffffffffffffffffffffffffffffffff1663150b7a026118ef610f16565b8786866040518563ffffffff1660e01b81526004016119119493929190612ed7565b602060405180830381600087803b15801561192b57600080fd5b505af192505050801561195c57506040513d601f19601f820116820180604052508101906119599190612f38565b60015b6119df573d806000811461198c576040519150601f19603f3d011682016040523d82523d6000602084013e611991565b606091505b506000815114156119d7576040517f08c379a00000000000000000000000000000000000000000000000000000000081526004016119ce90612c66565b60405180910390fd5b805181602001fd5b63150b7a0260e01b7bffffffffffffffffffffffffffffffffffffffffffffffffffffffff1916817bffffffffffffffffffffffffffffffffffffffffffffffffffffffff191614915050611a34565b600190505b949350505050565b60606000821415611a84576040518060400160405280600181526020017f30000000000000000000000000000000000000000000000000000000000000008152509050611b98565b600082905060005b60008214611ab6578080611a9f9061286d565b915050600a82611aaf9190612f94565b9150611a8c565b60008167ffffffffffffffff811115611ad257611ad1612028565b5b6040519080825280601f01601f191660200182016040528015611b045781602001600182028036833780820191505090505b5090505b60008514611b9157600182611b1d9190612afe565b9150600a85611b2c9190612fc5565b6030611b389190612b32565b60f81b818381518110611b4e57611b4d612ff6565b5b60200101907effffffffffffffffffffffffffffffffffffffffffffffffffffffffffffff1916908160001a905350600a85611b8a9190612f94565b9450611b08565b8093505050505b919050565b600080823b905060008111915050919050565b828054611bbc90612342565b90600052602060002090601f016020900481019282611bde5760008555611c25565b82601f10611bf757805160ff1916838001178555611c25565b82800160010185558215611c25579182015b82811115611c24578251825591602001919060010190611c09565b5b509050611c329190611c36565b5090565b5b80821115611c4f576000816000905550600101611c37565b5090565b6000604051905090565b600080fd5b600080fd5b60007fffffffff0000000000000000000000000000000000000000000000000000000082169050919050565b611c9c81611c67565b8114611ca757600080fd5b50565b600081359050611cb981611c93565b92915050565b600060208284031215611cd557611cd4611c5d565b5b6000611ce384828501611caa565b91505092915050565b60008115159050919050565b611d0181611cec565b82525050565b6000602082019050611d1c6000830184611cf8565b92915050565b600081519050919050565b600082825260208201905092915050565b60005b83811015611d5c578082015181840152602081019050611d41565b83811115611d6b576000848401525b50505050565b6000601f19601f8301169050919050565b6000611d8d82611d22565b611d978185611d2d565b9350611da7818560208601611d3e565b611db081611d71565b840191505092915050565b60006020820190508181036000830152611dd58184611d82565b905092915050565b6000819050919050565b611df081611ddd565b8114611dfb57600080fd5b50565b600081359050611e0d81611de7565b92915050565b600060208284031215611e2957611e28611c5d565b5b6000611e3784828501611dfe565b91505092915050565b600073ffffffffffffffffffffffffffffffffffffffff82169050919050565b6000611e6b82611e40565b9050919050565b611e7b81611e60565b82525050565b6000602082019050611e966000830184611e72565b92915050565b611ea581611e60565b8114611eb057600080fd5b50565b600081359050611ec281611e9c565b92915050565b60008060408385031215611edf57611ede611c5d565b5b6000611eed85828601611eb3565b9250506020611efe85828601611dfe565b9150509250929050565b600080600060608486031215611f2157611f20611c5d565b5b6000611f2f86828701611eb3565b9350506020611f4086828701611eb3565b9250506040611f5186828701611dfe565b9150509250925092565b600060208284031215611f7157611f70611c5d565b5b6000611f7f84828501611eb3565b91505092915050565b611f9181611ddd565b82525050565b6000602082019050611fac6000830184611f88565b92915050565b611fbb81611cec565b8114611fc657600080fd5b50565b600081359050611fd881611fb2565b92915050565b60008060408385031215611ff557611ff4611c5d565b5b600061200385828601611eb3565b925050602061201485828601611fc9565b9150509250929050565b600080fd5b600080fd5b7f4e487b7100000000000000000000000000000000000000000000000000000000600052604160045260246000fd5b61206082611d71565b810181811067ffffffffffffffff8211171561207f5761207e612028565b5b80604052505050565b6000612092611c53565b905061209e8282612057565b919050565b600067ffffffffffffffff8211156120be576120bd612028565b5b6120c782611d71565b9050602081019050919050565b82818337600083830152505050565b60006120f66120f1846120a3565b612088565b90508281526020810184848401111561211257612111612023565b5b61211d8482856120d4565b509392505050565b600082601f83011261213a5761213961201e565b5b813561214a8482602086016120e3565b91505092915050565b6000806000806080858703121561216d5761216c611c5d565b5b600061217b87828801611eb3565b945050602061218c87828801611eb3565b935050604061219d87828801611dfe565b925050606085013567ffffffffffffffff8111156121be576121bd611c62565b5b6121ca87828801612125565b91505092959194509250565b600067ffffffffffffffff8211156121f1576121f0612028565b5b6121fa82611d71565b9050602081019050919050565b600061221a612215846121d6565b612088565b90508281526020810184848401111561223657612235612023565b5b6122418482856120d4565b509392505050565b600082601f83011261225e5761225d61201e565b5b813561226e848260208601612207565b91505092915050565b6000806040838503121561228e5761228d611c5d565b5b600061229c85828601611eb3565b925050602083013567ffffffffffffffff8111156122bd576122bc611c62565b5b6122c985828601612249565b9150509250929050565b600080604083850312156122ea576122e9611c5d565b5b60006122f885828601611eb3565b925050602061230985828601611eb3565b9150509250929050565b7f4e487b7100000000000000000000000000000000000000000000000000000000600052602260045260246000fd5b6000600282049050600182168061235a57607f821691505b6020821081141561236e5761236d612313565b5b50919050565b7f4552433732313a20617070726f76656420717565727920666f72206e6f6e657860008201527f697374656e7420746f6b656e0000000000000000000000000000000000000000602082015250565b60006123d0602c83611d2d565b91506123db82612374565b604082019050919050565b600060208201905081810360008301526123ff816123c3565b9050919050565b7f4552433732313a20617070726f76616c20746f2063757272656e74206f776e6560008201527f7200000000000000000000000000000000000000000000000000000000000000602082015250565b6000612462602183611d2d565b915061246d82612406565b604082019050919050565b6000602082019050818103600083015261249181612455565b9050919050565b7f4552433732313a20617070726f76652063616c6c6572206973206e6f74206f7760008201527f6e6572206e6f7220617070726f76656420666f7220616c6c0000000000000000602082015250565b60006124f4603883611d2d565b91506124ff82612498565b604082019050919050565b60006020820190508181036000830152612523816124e7565b9050919050565b7f4552433732313a207472616e736665722063616c6c6572206973206e6f74206f60008201527f776e6572206e6f7220617070726f766564000000000000000000000000000000602082015250565b6000612586603183611d2d565b91506125918261252a565b604082019050919050565b600060208201905081810360008301526125b581612579565b9050919050565b7f4552433732313a206f776e657220717565727920666f72206e6f6e657869737460008201527f656e7420746f6b656e0000000000000000000000000000000000000000000000602082015250565b6000612618602983611d2d565b9150612623826125bc565b604082019050919050565b600060208201905081810360008301526126478161260b565b9050919050565b7f4552433732313a2062616c616e636520717565727920666f7220746865207a6560008201527f726f206164647265737300000000000000000000000000000000000000000000602082015250565b60006126aa602a83611d2d565b91506126b58261264e565b604082019050919050565b600060208201905081810360008301526126d98161269d565b9050919050565b7f4f776e61626c653a2063616c6c6572206973206e6f7420746865206f776e6572600082015250565b6000612716602083611d2d565b9150612721826126e0565b602082019050919050565b6000602082019050818103600083015261274581612709565b9050919050565b7f45524337323155524953746f726167653a2055524920717565727920666f722060008201527f6e6f6e6578697374656e7420746f6b656e000000000000000000000000000000602082015250565b60006127a8603183611d2d565b91506127b38261274c565b604082019050919050565b600060208201905081810360008301526127d78161279b565b9050919050565b600081905092915050565b60006127f482611d22565b6127fe81856127de565b935061280e818560208601611d3e565b80840191505092915050565b600061282682856127e9565b915061283282846127e9565b91508190509392505050565b7f4e487b7100000000000000000000000000000000000000000000000000000000600052601160045260246000fd5b600061287882611ddd565b91507fffffffffffffffffffffffffffffffffffffffffffffffffffffffffffffffff8214156128ab576128aa61283e565b5b600182019050919050565b7f4f776e61626c653a206e6577206f776e657220697320746865207a65726f206160008201527f6464726573730000000000000000000000000000000000000000000000000000602082015250565b6000612912602683611d2d565b915061291d826128b6565b604082019050919050565b6000602082019050818103600083015261294181612905565b9050919050565b7f4552433732313a206f70657261746f7220717565727920666f72206e6f6e657860008201527f697374656e7420746f6b656e0000000000000000000000000000000000000000602082015250565b60006129a4602c83611d2d565b91506129af82612948565b604082019050919050565b600060208201905081810360008301526129d381612997565b9050919050565b7f4552433732313a207472616e73666572206f6620746f6b656e2074686174206960008201527f73206e6f74206f776e0000000000000000000000000000000000000000000000602082015250565b6000612a36602983611d2d565b9150612a41826129da565b604082019050919050565b60006020820190508181036000830152612a6581612a29565b9050919050565b7f4552433732313a207472616e7366657220746f20746865207a65726f2061646460008201527f7265737300000000000000000000000000000000000000000000000000000000602082015250565b6000612ac8602483611d2d565b9150612ad382612a6c565b604082019050919050565b60006020820190508181036000830152612af781612abb565b9050919050565b6000612b0982611ddd565b9150612b1483611ddd565b925082821015612b2757612b2661283e565b5b828203905092915050565b6000612b3d82611ddd565b9150612b4883611ddd565b9250827fffffffffffffffffffffffffffffffffffffffffffffffffffffffffffffffff03821115612b7d57612b7c61283e565b5b828201905092915050565b7f4552433732313a20617070726f766520746f2063616c6c657200000000000000600082015250565b6000612bbe601983611d2d565b9150612bc982612b88565b602082019050919050565b60006020820190508181036000830152612bed81612bb1565b9050919050565b7f4552433732313a207472616e7366657220746f206e6f6e20455243373231526560008201527f63656976657220696d706c656d656e7465720000000000000000000000000000602082015250565b6000612c50603283611d2d565b9150612c5b82612bf4565b604082019050919050565b60006020820190508181036000830152612c7f81612c43565b9050919050565b7f4552433732314d657461646174613a2055524920717565727920666f72206e6f60008201527f6e6578697374656e7420746f6b656e0000000000000000000000000000000000602082015250565b6000612ce2602f83611d2d565b9150612ced82612c86565b604082019050919050565b60006020820190508181036000830152612d1181612cd5565b9050919050565b7f4552433732313a206d696e7420746f20746865207a65726f2061646472657373600082015250565b6000612d4e602083611d2d565b9150612d5982612d18565b602082019050919050565b60006020820190508181036000830152612d7d81612d41565b9050919050565b7f4552433732313a20746f6b656e20616c7265616479206d696e74656400000000600082015250565b6000612dba601c83611d2d565b9150612dc582612d84565b602082019050919050565b60006020820190508181036000830152612de981612dad565b9050919050565b7f45524337323155524953746f726167653a2055524920736574206f66206e6f6e60008201527f6578697374656e7420746f6b656e000000000000000000000000000000000000602082015250565b6000612e4c602e83611d2d565b9150612e5782612df0565b604082019050919050565b60006020820190508181036000830152612e7b81612e3f565b9050919050565b600081519050919050565b600082825260208201905092915050565b6000612ea982612e82565b612eb38185612e8d565b9350612ec3818560208601611d3e565b612ecc81611d71565b840191505092915050565b6000608082019050612eec6000830187611e72565b612ef96020830186611e72565b612f066040830185611f88565b8181036060830152612f188184612e9e565b905095945050505050565b600081519050612f3281611c93565b92915050565b600060208284031215612f4e57612f4d611c5d565b5b6000612f5c84828501612f23565b91505092915050565b7f4e487b7100000000000000000000000000000000000000000000000000000000600052601260045260246000fd5b6000612f9f82611ddd565b9150612faa83611ddd565b925082612fba57612fb9612f65565b5b828204905092915050565b6000612fd082611ddd565b9150612fdb83611ddd565b925082612feb57612fea612f65565b5b828206905092915050565b7f4e487b7100000000000000000000000000000000000000000000000000000000600052603260045260246000fdfea264697066735822122071a615e10f54c05044bcc2401e3374e6f2646a33f11e092a7ab2c6b549309e8364736f6c63430008090033",
  "immutableReferences": {},
  "source": "// SPDX-License-Identifier: MIT\npragma solidity ^0.8.0;\n\nimport \"@openzeppelin/contracts/token/ERC721/extensions/ERC721URIStorage.sol\";\nimport \"@openzeppelin/contracts/access/AccessControl.sol\";\nimport \"@openzeppelin/contracts/access/Ownable.sol\";\n\ncontract NFTArt is ERC721URIStorage, Ownable {\n\n    uint256 private tokenId;\n\n    // bytes32 public constant ADMIN_ROLE = keccak256(\"ADMIN_ROLE\");\n\n\tevent Mint_TokenID(uint256 _tokenId);\n\n    constructor() ERC721(\"Paint\",\"PNT\") {\n        // _setupRole(ADMIN_ROLE, msg.sender);\n    }\n\n    function mint(address to, string memory tokenURI) public onlyOwner returns (uint256) {\n        tokenId++;\n        _mint(to, tokenId);\n\t\temit Mint_TokenID(tokenId);\n        _setTokenURI(tokenId, tokenURI);\n        return tokenId;\n    }\n\n    // function isAdmin(address account) public virtual view returns (bool){\n\t// \treturn hasRole(ADMIN_ROLE, account);\t\n\t// }\n\n    function existsTID(uint256 tokId) public view returns (bool) {\n        return _exists(tokId);\n    }\n\n    // function supportsInterface(bytes4 interfaceId) public view override(ERC721, AccessControl) returns(bool){\n    //     return super.supportsInterface(interfaceId);\n    // }\n\n    // modifier onlyAdmin() {\n\t// \trequire(isAdmin(msg.sender), \"Restricted to admins\");\n\t// \t_;\t\n\t// }\n}",
  "sourcePath": "/Volumes/Extreme SSD/University/Progetto/contracts/NFTArt.sol",
  "compiler": {
    "name": "solc",
    "version": "0.8.9+commit.e5eed63a.Emscripten.clang"
  },
  "schemaVersion": "3.4.3",
  "updatedAt": "2022-01-05T17:26:55.683Z",
  "networkType": "ethereum",
  "devdoc": {
    "kind": "dev",
    "methods": {
      "approve(address,uint256)": {
        "details": "See {IERC721-approve}."
      },
      "balanceOf(address)": {
        "details": "See {IERC721-balanceOf}."
      },
      "getApproved(uint256)": {
        "details": "See {IERC721-getApproved}."
      },
      "isApprovedForAll(address,address)": {
        "details": "See {IERC721-isApprovedForAll}."
      },
      "name()": {
        "details": "See {IERC721Metadata-name}."
      },
      "owner()": {
        "details": "Returns the address of the current owner."
      },
      "ownerOf(uint256)": {
        "details": "See {IERC721-ownerOf}."
      },
      "renounceOwnership()": {
        "details": "Leaves the contract without owner. It will not be possible to call `onlyOwner` functions anymore. Can only be called by the current owner. NOTE: Renouncing ownership will leave the contract without an owner, thereby removing any functionality that is only available to the owner."
      },
      "safeTransferFrom(address,address,uint256)": {
        "details": "See {IERC721-safeTransferFrom}."
      },
      "safeTransferFrom(address,address,uint256,bytes)": {
        "details": "See {IERC721-safeTransferFrom}."
      },
      "setApprovalForAll(address,bool)": {
        "details": "See {IERC721-setApprovalForAll}."
      },
      "supportsInterface(bytes4)": {
        "details": "See {IERC165-supportsInterface}."
      },
      "symbol()": {
        "details": "See {IERC721Metadata-symbol}."
      },
      "tokenURI(uint256)": {
        "details": "See {IERC721Metadata-tokenURI}."
      },
      "transferFrom(address,address,uint256)": {
        "details": "See {IERC721-transferFrom}."
      },
      "transferOwnership(address)": {
        "details": "Transfers ownership of the contract to a new account (`newOwner`). Can only be called by the current owner."
      }
    },
    "version": 1
  },
  "userdoc": {
    "kind": "user",
    "methods": {},
    "version": 1
  }
}